{
  "_format": "hh-sol-artifact-1",
  "contractName": "CampaignFactory",
  "sourceName": "contracts/Campaign.sol",
  "abi": [
    {
      "anonymous": false,
      "inputs": [
        {
          "indexed": true,
          "internalType": "address",
          "name": "donar",
          "type": "address"
        },
        {
          "indexed": true,
          "internalType": "uint256",
          "name": "amount",
          "type": "uint256"
        },
        {
          "indexed": true,
          "internalType": "uint256",
          "name": "timestamp",
          "type": "uint256"
        }
      ],
      "name": "donated",
      "type": "event"
    },
    {
      "inputs": [
        {
          "internalType": "uint256",
          "name": "",
          "type": "uint256"
        }
      ],
      "name": "all_campaigns",
      "outputs": [
        {
          "internalType": "uint256",
          "name": "campaign_id",
          "type": "uint256"
        },
        {
          "internalType": "string",
          "name": "title",
          "type": "string"
        },
        {
          "internalType": "uint256",
          "name": "requiredAmount",
          "type": "uint256"
        },
        {
          "internalType": "string",
          "name": "category",
          "type": "string"
        },
        {
          "internalType": "string",
          "name": "description",
          "type": "string"
        },
        {
          "internalType": "string",
          "name": "imgURI",
          "type": "string"
        },
        {
          "internalType": "address payable",
          "name": "owner",
          "type": "address"
        },
        {
          "internalType": "address",
          "name": "dr_address",
          "type": "address"
        },
        {
          "internalType": "uint256",
          "name": "receivedAmount",
          "type": "uint256"
        }
      ],
      "stateMutability": "view",
      "type": "function"
    },
    {
      "inputs": [],
      "name": "campaign_count",
      "outputs": [
        {
          "internalType": "uint256",
          "name": "",
          "type": "uint256"
        }
      ],
      "stateMutability": "view",
      "type": "function"
    },
    {
      "inputs": [
        {
          "internalType": "uint256",
          "name": "",
          "type": "uint256"
        }
      ],
      "name": "campaign_status",
      "outputs": [
        {
          "internalType": "bool",
          "name": "",
          "type": "bool"
        }
      ],
      "stateMutability": "view",
      "type": "function"
    },
    {
      "inputs": [
        {
          "internalType": "string",
          "name": "_title",
          "type": "string"
        },
        {
          "internalType": "uint256",
          "name": "_requiredAmount",
          "type": "uint256"
        },
        {
          "internalType": "string",
          "name": "_category",
          "type": "string"
        },
        {
          "internalType": "string",
          "name": "_description",
          "type": "string"
        },
        {
          "internalType": "string",
          "name": "_imgURI",
          "type": "string"
        },
        {
          "internalType": "address",
          "name": "_dr_address",
          "type": "address"
        }
      ],
      "name": "createCampaign",
      "outputs": [
        {
          "internalType": "uint256",
          "name": "",
          "type": "uint256"
        }
      ],
      "stateMutability": "nonpayable",
      "type": "function"
    },
    {
      "inputs": [
        {
          "internalType": "uint256",
          "name": "_campaignId",
          "type": "uint256"
        }
      ],
      "name": "donate",
      "outputs": [],
      "stateMutability": "payable",
      "type": "function"
    },
    {
      "inputs": [
        {
          "internalType": "address",
          "name": "",
          "type": "address"
        },
        {
          "internalType": "uint256",
          "name": "",
          "type": "uint256"
        }
      ],
      "name": "dr_mapping",
      "outputs": [
        {
          "internalType": "uint256",
          "name": "",
          "type": "uint256"
        }
      ],
      "stateMutability": "view",
      "type": "function"
    },
    {
      "inputs": [
        {
          "internalType": "uint256",
          "name": "_id",
          "type": "uint256"
        }
      ],
      "name": "getCampaignDetailsById",
      "outputs": [
        {
          "internalType": "string",
          "name": "",
          "type": "string"
        },
        {
          "internalType": "uint256",
          "name": "",
          "type": "uint256"
        },
        {
          "internalType": "string",
          "name": "",
          "type": "string"
        },
        {
          "internalType": "string",
          "name": "",
          "type": "string"
        },
        {
          "internalType": "string",
          "name": "",
          "type": "string"
        },
        {
          "internalType": "address",
          "name": "",
          "type": "address"
        }
      ],
      "stateMutability": "view",
      "type": "function"
    },
    {
      "inputs": [
        {
          "internalType": "address",
          "name": "_dr_address",
          "type": "address"
        },
        {
          "internalType": "uint256",
          "name": "ind",
          "type": "uint256"
        }
      ],
      "name": "getCampaignIdByDr",
      "outputs": [
        {
          "internalType": "uint256",
          "name": "",
          "type": "uint256"
        }
      ],
      "stateMutability": "view",
      "type": "function"
    },
    {
      "inputs": [
        {
          "internalType": "address",
          "name": "_dr_address",
          "type": "address"
        }
      ],
      "name": "getCampaignLengthByDr",
      "outputs": [
        {
          "internalType": "uint256",
          "name": "",
          "type": "uint256"
        }
      ],
      "stateMutability": "view",
      "type": "function"
    },
    {
      "inputs": [
        {
          "internalType": "uint256",
          "name": "_id",
          "type": "uint256"
        }
      ],
      "name": "getCampaignStatusById",
      "outputs": [
        {
          "internalType": "bool",
          "name": "",
          "type": "bool"
        }
      ],
      "stateMutability": "view",
      "type": "function"
    },
    {
      "inputs": [
        {
          "internalType": "address",
          "name": "_dr_address",
          "type": "address"
        },
        {
          "internalType": "uint256",
          "name": "c_id",
          "type": "uint256"
        }
      ],
      "name": "removeVerifiedCampaignFromDr",
      "outputs": [],
      "stateMutability": "nonpayable",
      "type": "function"
    },
    {
      "inputs": [
        {
          "internalType": "uint256",
          "name": "c_id",
          "type": "uint256"
        }
      ],
      "name": "verifyCampaign",
      "outputs": [],
      "stateMutability": "nonpayable",
      "type": "function"
    }
  ],
  "bytecode": "0x608060405234801561001057600080fd5b50611824806100206000396000f3fe6080604052600436106100a75760003560e01c8063c34fdd2611610064578063c34fdd2614610208578063d314de1f1461024d578063e56cbf9214610276578063f14faf6f146102b8578063f52cb29b146102d4578063f955f99f146102fd576100a7565b8063489b2802146100ac5780636581f8e3146100e95780636bc3ccfc1461011457806376da242314610151578063a73232ef1461018e578063b260add1146101cb575b600080fd5b3480156100b857600080fd5b506100d360048036038101906100ce919061124f565b61033a565b6040516100e0919061135b565b60405180910390f35b3480156100f557600080fd5b506100fe6105ac565b60405161010b919061135b565b60405180910390f35b34801561012057600080fd5b5061013b60048036038101906101369190611376565b6105b2565b60405161014891906113be565b60405180910390f35b34801561015d57600080fd5b50610178600480360381019061017391906113d9565b6105d2565b604051610185919061135b565b60405180910390f35b34801561019a57600080fd5b506101b560048036038101906101b09190611376565b61061e565b6040516101c291906113be565b60405180910390f35b3480156101d757600080fd5b506101f260048036038101906101ed9190611406565b610647565b6040516101ff919061135b565b60405180910390f35b34801561021457600080fd5b5061022f600480360381019061022a9190611376565b6106ad565b604051610244999897969594939291906114fe565b60405180910390f35b34801561025957600080fd5b50610274600480360381019061026f9190611406565b61095b565b005b34801561028257600080fd5b5061029d60048036038101906102989190611376565b610a87565b6040516102af969594939291906115a7565b60405180910390f35b6102d260048036038101906102cd9190611376565b610d7d565b005b3480156102e057600080fd5b506102fb60048036038101906102f69190611376565b610edd565b005b34801561030957600080fd5b50610324600480360381019061031f9190611406565b610f15565b604051610331919061135b565b60405180910390f35b60006003600081548092919061034f90611653565b919050555061035c610f46565b60405180610120016040528060035481526020018981526020018881526020018781526020018681526020018581526020013373ffffffffffffffffffffffffffffffffffffffff1681526020018473ffffffffffffffffffffffffffffffffffffffff1681526020016000815250905080600160006003548152602001908152602001600020600082015181600001556020820151816001019080519060200190610409929190610fbe565b50604082015181600201556060820151816003019080519060200190610430929190610fbe565b50608082015181600401908051906020019061044d929190610fbe565b5060a082015181600501908051906020019061046a929190610fbe565b5060c08201518160060160006101000a81548173ffffffffffffffffffffffffffffffffffffffff021916908373ffffffffffffffffffffffffffffffffffffffff16021790555060e08201518160070160006101000a81548173ffffffffffffffffffffffffffffffffffffffff021916908373ffffffffffffffffffffffffffffffffffffffff16021790555061010082015181600801559050506000806000600354815260200190815260200160002060006101000a81548160ff021916908315150217905550600260008473ffffffffffffffffffffffffffffffffffffffff1673ffffffffffffffffffffffffffffffffffffffff16815260200190815260200160002060035490806001815401808255809150506001900390600052602060002001600090919091909150556003549150509695505050505050565b60035481565b60006020528060005260406000206000915054906101000a900460ff1681565b6000600260008373ffffffffffffffffffffffffffffffffffffffff1673ffffffffffffffffffffffffffffffffffffffff168152602001908152602001600020805490509050919050565b600080600083815260200190815260200160002060009054906101000a900460ff169050919050565b6000600260008473ffffffffffffffffffffffffffffffffffffffff1673ffffffffffffffffffffffffffffffffffffffff168152602001908152602001600020828154811061069a5761069961169c565b5b9060005260206000200154905092915050565b60016020528060005260406000206000915090508060000154908060010180546106d6906116fa565b80601f0160208091040260200160405190810160405280929190818152602001828054610702906116fa565b801561074f5780601f106107245761010080835404028352916020019161074f565b820191906000526020600020905b81548152906001019060200180831161073257829003601f168201915b50505050509080600201549080600301805461076a906116fa565b80601f0160208091040260200160405190810160405280929190818152602001828054610796906116fa565b80156107e35780601f106107b8576101008083540402835291602001916107e3565b820191906000526020600020905b8154815290600101906020018083116107c657829003601f168201915b5050505050908060040180546107f8906116fa565b80601f0160208091040260200160405190810160405280929190818152602001828054610824906116fa565b80156108715780601f1061084657610100808354040283529160200191610871565b820191906000526020600020905b81548152906001019060200180831161085457829003601f168201915b505050505090806005018054610886906116fa565b80601f01602080910402602001604051908101604052809291908181526020018280546108b2906116fa565b80156108ff5780601f106108d4576101008083540402835291602001916108ff565b820191906000526020600020905b8154815290600101906020018083116108e257829003601f168201915b5050505050908060060160009054906101000a900473ffffffffffffffffffffffffffffffffffffffff16908060070160009054906101000a900473ffffffffffffffffffffffffffffffffffffffff16908060080154905089565b60005b600260008473ffffffffffffffffffffffffffffffffffffffff1673ffffffffffffffffffffffffffffffffffffffff16815260200190815260200160002080549050811015610a8257600260008473ffffffffffffffffffffffffffffffffffffffff1673ffffffffffffffffffffffffffffffffffffffff16815260200190815260200160002081815481106109f9576109f861169c565b5b9060005260206000200154821415610a6f57600260008473ffffffffffffffffffffffffffffffffffffffff1673ffffffffffffffffffffffffffffffffffffffff1681526020019081526020016000208181548110610a5c57610a5b61169c565b5b9060005260206000200160009055610a82565b8080610a7a90611653565b91505061095e565b505050565b6060600060608060606000600160008881526020019081526020016000206001016001600089815260200190815260200160002060020154600160008a8152602001908152602001600020600301600160008b8152602001908152602001600020600401600160008c8152602001908152602001600020600501600160008d815260200190815260200160002060060160009054906101000a900473ffffffffffffffffffffffffffffffffffffffff16858054610b44906116fa565b80601f0160208091040260200160405190810160405280929190818152602001828054610b70906116fa565b8015610bbd5780601f10610b9257610100808354040283529160200191610bbd565b820191906000526020600020905b815481529060010190602001808311610ba057829003601f168201915b50505050509550838054610bd0906116fa565b80601f0160208091040260200160405190810160405280929190818152602001828054610bfc906116fa565b8015610c495780601f10610c1e57610100808354040283529160200191610c49565b820191906000526020600020905b815481529060010190602001808311610c2c57829003601f168201915b50505050509350828054610c5c906116fa565b80601f0160208091040260200160405190810160405280929190818152602001828054610c88906116fa565b8015610cd55780601f10610caa57610100808354040283529160200191610cd5565b820191906000526020600020905b815481529060010190602001808311610cb857829003601f168201915b50505050509250818054610ce8906116fa565b80601f0160208091040260200160405190810160405280929190818152602001828054610d14906116fa565b8015610d615780601f10610d3657610100808354040283529160200191610d61565b820191906000526020600020905b815481529060010190602001808311610d4457829003601f168201915b5050505050915095509550955095509550955091939550919395565b6001600082815260200190815260200160002060080154600160008381526020019081526020016000206002015411610deb576040517f08c379a0000000000000000000000000000000000000000000000000000000008152600401610de290611778565b60405180910390fd5b6001600082815260200190815260200160002060060160009054906101000a900473ffffffffffffffffffffffffffffffffffffffff1673ffffffffffffffffffffffffffffffffffffffff166108fc349081150290604051600060405180830381858888f19350505050158015610e67573d6000803e3d6000fd5b5034600160008381526020019081526020016000206008016000828254610e8e9190611798565b9250508190555042343373ffffffffffffffffffffffffffffffffffffffff167fe6add99d06d9ad7fc456e746aa162eed6211c5002ef2dacdd67b8d2016822fba60405160405180910390a450565b600160008083815260200190815260200160002060006101000a81548160ff021916908315150217905550610f12338261095b565b50565b60026020528160005260406000208181548110610f3157600080fd5b90600052602060002001600091509150505481565b604051806101200160405280600081526020016060815260200160008152602001606081526020016060815260200160608152602001600073ffffffffffffffffffffffffffffffffffffffff168152602001600073ffffffffffffffffffffffffffffffffffffffff168152602001600081525090565b828054610fca906116fa565b90600052602060002090601f016020900481019282610fec5760008555611033565b82601f1061100557805160ff1916838001178555611033565b82800160010185558215611033579182015b82811115611032578251825591602001919060010190611017565b5b5090506110409190611044565b5090565b5b8082111561105d576000816000905550600101611045565b5090565b6000604051905090565b600080fd5b600080fd5b600080fd5b600080fd5b6000601f19601f8301169050919050565b7f4e487b7100000000000000000000000000000000000000000000000000000000600052604160045260246000fd5b6110c88261107f565b810181811067ffffffffffffffff821117156110e7576110e6611090565b5b80604052505050565b60006110fa611061565b905061110682826110bf565b919050565b600067ffffffffffffffff82111561112657611125611090565b5b61112f8261107f565b9050602081019050919050565b82818337600083830152505050565b600061115e6111598461110b565b6110f0565b90508281526020810184848401111561117a5761117961107a565b5b61118584828561113c565b509392505050565b600082601f8301126111a2576111a1611075565b5b81356111b284826020860161114b565b91505092915050565b6000819050919050565b6111ce816111bb565b81146111d957600080fd5b50565b6000813590506111eb816111c5565b92915050565b600073ffffffffffffffffffffffffffffffffffffffff82169050919050565b600061121c826111f1565b9050919050565b61122c81611211565b811461123757600080fd5b50565b60008135905061124981611223565b92915050565b60008060008060008060c0878903121561126c5761126b61106b565b5b600087013567ffffffffffffffff81111561128a57611289611070565b5b61129689828a0161118d565b96505060206112a789828a016111dc565b955050604087013567ffffffffffffffff8111156112c8576112c7611070565b5b6112d489828a0161118d565b945050606087013567ffffffffffffffff8111156112f5576112f4611070565b5b61130189828a0161118d565b935050608087013567ffffffffffffffff81111561132257611321611070565b5b61132e89828a0161118d565b92505060a061133f89828a0161123a565b9150509295509295509295565b611355816111bb565b82525050565b6000602082019050611370600083018461134c565b92915050565b60006020828403121561138c5761138b61106b565b5b600061139a848285016111dc565b91505092915050565b60008115159050919050565b6113b8816113a3565b82525050565b60006020820190506113d360008301846113af565b92915050565b6000602082840312156113ef576113ee61106b565b5b60006113fd8482850161123a565b91505092915050565b6000806040838503121561141d5761141c61106b565b5b600061142b8582860161123a565b925050602061143c858286016111dc565b9150509250929050565b600081519050919050565b600082825260208201905092915050565b60005b83811015611480578082015181840152602081019050611465565b8381111561148f576000848401525b50505050565b60006114a082611446565b6114aa8185611451565b93506114ba818560208601611462565b6114c38161107f565b840191505092915050565b60006114d9826111f1565b9050919050565b6114e9816114ce565b82525050565b6114f881611211565b82525050565b600061012082019050611514600083018c61134c565b8181036020830152611526818b611495565b9050611535604083018a61134c565b81810360608301526115478189611495565b9050818103608083015261155b8188611495565b905081810360a083015261156f8187611495565b905061157e60c08301866114e0565b61158b60e08301856114ef565b61159961010083018461134c565b9a9950505050505050505050565b600060c08201905081810360008301526115c18189611495565b90506115d0602083018861134c565b81810360408301526115e28187611495565b905081810360608301526115f68186611495565b9050818103608083015261160a8185611495565b905061161960a08301846114ef565b979650505050505050565b7f4e487b7100000000000000000000000000000000000000000000000000000000600052601160045260246000fd5b600061165e826111bb565b91507fffffffffffffffffffffffffffffffffffffffffffffffffffffffffffffffff82141561169157611690611624565b5b600182019050919050565b7f4e487b7100000000000000000000000000000000000000000000000000000000600052603260045260246000fd5b7f4e487b7100000000000000000000000000000000000000000000000000000000600052602260045260246000fd5b6000600282049050600182168061171257607f821691505b60208210811415611726576117256116cb565b5b50919050565b7f526571756972656420416d6f756e742046756c66696c6c656400000000000000600082015250565b6000611762601983611451565b915061176d8261172c565b602082019050919050565b6000602082019050818103600083015261179181611755565b9050919050565b60006117a3826111bb565b91506117ae836111bb565b9250827fffffffffffffffffffffffffffffffffffffffffffffffffffffffffffffffff038211156117e3576117e2611624565b5b82820190509291505056fea2646970667358221220307e94e2a9f5f8105c4619f6a0f1cdbf73c955741022016339182de8bf29490464736f6c634300080a0033",
  "linkReferences": {},
  "deployedLinkReferences": {}
}